{
  "contractName": "Distributor",
  "abi": [
    {
      "constant": true,
      "inputs": [
        {
          "internalType": "address",
          "name": "",
          "type": "address"
        }
      ],
      "name": "GroupOfDistributors",
      "outputs": [
        {
          "internalType": "string",
          "name": "Name",
          "type": "string"
        },
        {
          "internalType": "string",
          "name": "Id",
          "type": "string"
        },
        {
          "internalType": "string",
          "name": "Email",
          "type": "string"
        }
      ],
      "payable": false,
      "stateMutability": "view",
      "type": "function"
    },
    {
      "constant": false,
      "inputs": [
        {
          "internalType": "string",
          "name": "_Name",
          "type": "string"
        },
        {
          "internalType": "string",
          "name": "_Id",
          "type": "string"
        },
        {
          "internalType": "string",
          "name": "_Email",
          "type": "string"
        }
      ],
      "name": "setDistDetails",
      "outputs": [],
      "payable": false,
      "stateMutability": "nonpayable",
      "type": "function"
    },
    {
      "constant": true,
      "inputs": [
        {
          "internalType": "address",
          "name": "user",
          "type": "address"
        }
      ],
      "name": "getDistDetails",
      "outputs": [
        {
          "components": [
            {
              "internalType": "string",
              "name": "Name",
              "type": "string"
            },
            {
              "internalType": "string",
              "name": "Id",
              "type": "string"
            },
            {
              "internalType": "string",
              "name": "Email",
              "type": "string"
            }
          ],
          "internalType": "struct Distributor.distributorDetails",
          "name": "",
          "type": "tuple"
        }
      ],
      "payable": false,
      "stateMutability": "view",
      "type": "function"
    }
  ],
  "bytecode": "0x608060405234801561001057600080fd5b50610a3e806100206000396000f3fe608060405234801561001057600080fd5b50600436106100415760003560e01c806350b45bcb146100465780638de7ad5b14610078578063a7c3ea9114610094575b600080fd5b610060600480360361005b91908101906106db565b6100c4565b60405161006f9392919061086b565b60405180910390f35b610092600480360361008d9190810190610704565b6102b6565b005b6100ae60048036036100a991908101906106db565b61036e565b6040516100bb91906108b7565b60405180910390f35b6000602052806000526040600020600091509050806000018054600181600116156101000203166002900480601f0160208091040260200160405190810160405280929190818152602001828054600181600116156101000203166002900480156101705780601f1061014557610100808354040283529160200191610170565b820191906000526020600020905b81548152906001019060200180831161015357829003601f168201915b505050505090806001018054600181600116156101000203166002900480601f01602080910402602001604051908101604052809291908181526020018280546001816001161561010002031660029004801561020e5780601f106101e35761010080835404028352916020019161020e565b820191906000526020600020905b8154815290600101906020018083116101f157829003601f168201915b505050505090806002018054600181600116156101000203166002900480601f0160208091040260200160405190810160405280929190818152602001828054600181600116156101000203166002900480156102ac5780601f10610281576101008083540402835291602001916102ac565b820191906000526020600020905b81548152906001019060200180831161028f57829003601f168201915b5050505050905083565b6040518060600160405280848152602001838152602001828152506000803373ffffffffffffffffffffffffffffffffffffffff1673ffffffffffffffffffffffffffffffffffffffff168152602001908152602001600020600082015181600001908051906020019061032b9291906105ac565b5060208201518160010190805190602001906103489291906105ac565b5060408201518160020190805190602001906103659291906105ac565b50905050505050565b61037661062c565b6000808373ffffffffffffffffffffffffffffffffffffffff1673ffffffffffffffffffffffffffffffffffffffff168152602001908152602001600020604051806060016040529081600082018054600181600116156101000203166002900480601f0160208091040260200160405190810160405280929190818152602001828054600181600116156101000203166002900480156104585780601f1061042d57610100808354040283529160200191610458565b820191906000526020600020905b81548152906001019060200180831161043b57829003601f168201915b50505050508152602001600182018054600181600116156101000203166002900480601f0160208091040260200160405190810160405280929190818152602001828054600181600116156101000203166002900480156104fa5780601f106104cf576101008083540402835291602001916104fa565b820191906000526020600020905b8154815290600101906020018083116104dd57829003601f168201915b50505050508152602001600282018054600181600116156101000203166002900480601f01602080910402602001604051908101604052809291908181526020018280546001816001161561010002031660029004801561059c5780601f106105715761010080835404028352916020019161059c565b820191906000526020600020905b81548152906001019060200180831161057f57829003601f168201915b5050505050815250509050919050565b828054600181600116156101000203166002900490600052602060002090601f016020900481019282601f106105ed57805160ff191683800117855561061b565b8280016001018555821561061b579182015b8281111561061a5782518255916020019190600101906105ff565b5b509050610628919061064d565b5090565b60405180606001604052806060815260200160608152602001606081525090565b61066f91905b8082111561066b576000816000905550600101610653565b5090565b90565b600081359050610681816109e4565b92915050565b600082601f83011261069857600080fd5b81356106ab6106a682610906565b6108d9565b915080825260208301602083018583830111156106c757600080fd5b6106d2838284610991565b50505092915050565b6000602082840312156106ed57600080fd5b60006106fb84828501610672565b91505092915050565b60008060006060848603121561071957600080fd5b600084013567ffffffffffffffff81111561073357600080fd5b61073f86828701610687565b935050602084013567ffffffffffffffff81111561075c57600080fd5b61076886828701610687565b925050604084013567ffffffffffffffff81111561078557600080fd5b61079186828701610687565b9150509250925092565b60006107a682610932565b6107b0818561093d565b93506107c08185602086016109a0565b6107c9816109d3565b840191505092915050565b60006107df82610932565b6107e9818561094e565b93506107f98185602086016109a0565b610802816109d3565b840191505092915050565b6000606083016000830151848203600086015261082a828261079b565b91505060208301518482036020860152610844828261079b565b9150506040830151848203604086015261085e828261079b565b9150508091505092915050565b6000606082019050818103600083015261088581866107d4565b9050818103602083015261089981856107d4565b905081810360408301526108ad81846107d4565b9050949350505050565b600060208201905081810360008301526108d1818461080d565b905092915050565b6000604051905081810181811067ffffffffffffffff821117156108fc57600080fd5b8060405250919050565b600067ffffffffffffffff82111561091d57600080fd5b601f19601f8301169050602081019050919050565b600081519050919050565b600082825260208201905092915050565b600082825260208201905092915050565b600061096a82610971565b9050919050565b600073ffffffffffffffffffffffffffffffffffffffff82169050919050565b82818337600083830152505050565b60005b838110156109be5780820151818401526020810190506109a3565b838111156109cd576000848401525b50505050565b6000601f19601f8301169050919050565b6109ed8161095f565b81146109f857600080fd5b5056fea365627a7a72315820e22b541f5a53cb0726ecb2e948dd90c72d15d92231c19d470fc8874aa02bf0e06c6578706572696d656e74616cf564736f6c63430005100040",
  "source": "pragma solidity >=0.4.21 <0.7.0;\npragma experimental ABIEncoderV2;\n\ncontract Distributor {\n    struct distributorDetails{\n        string Name;\n        string Id;\n        string Email;\n    }\n\n    mapping (address => distributorDetails) public GroupOfDistributors;\n\n    function setDistDetails(string memory _Name, string memory _Id, string memory _Email) public {\n        GroupOfDistributors[msg.sender] = distributorDetails({\n            Name: _Name,\n            Id: _Id,\n            Email: _Email\n        });\n    }\n\n    function getDistDetails(address user) public view returns(distributorDetails memory){\n        return GroupOfDistributors[user];\n    }\n}",
  "sourcePath": "/home/abhirampuranik/SupplyChain_TeamEthConnect/contracts/Distributor.sol",
  "compiler": {
    "name": "solc",
    "version": "0.5.16+commit.9c3226ce.Emscripten.clang"
  },
  "schemaVersion": "3.4.4",
  "updatedAt": "2022-02-12T08:05:41.378Z",
  "networkType": "ethereum",
  "devdoc": {
    "methods": {}
  },
  "userdoc": {
    "methods": {}
  }
}