{
  "contractName": "Regional",
  "abi": [
    {
      "constant": true,
      "inputs": [
        {
          "internalType": "address",
          "name": "",
          "type": "address"
        }
      ],
      "name": "GroupOfRegional",
      "outputs": [
        {
          "internalType": "string",
          "name": "Name",
          "type": "string"
        },
        {
          "internalType": "string",
          "name": "Id",
          "type": "string"
        },
        {
          "internalType": "string",
          "name": "Email",
          "type": "string"
        },
        {
          "internalType": "bool",
          "name": "isValue",
          "type": "bool"
        }
      ],
      "payable": false,
      "stateMutability": "view",
      "type": "function"
    },
    {
      "constant": false,
      "inputs": [
        {
          "internalType": "string",
          "name": "_Name",
          "type": "string"
        },
        {
          "internalType": "string",
          "name": "_Id",
          "type": "string"
        },
        {
          "internalType": "string",
          "name": "_Email",
          "type": "string"
        }
      ],
      "name": "setRegDetails",
      "outputs": [],
      "payable": false,
      "stateMutability": "nonpayable",
      "type": "function"
    },
    {
      "constant": true,
      "inputs": [
        {
          "internalType": "address",
          "name": "user",
          "type": "address"
        }
      ],
      "name": "getRegDetails",
      "outputs": [
        {
          "components": [
            {
              "internalType": "string",
              "name": "Name",
              "type": "string"
            },
            {
              "internalType": "string",
              "name": "Id",
              "type": "string"
            },
            {
              "internalType": "string",
              "name": "Email",
              "type": "string"
            },
            {
              "internalType": "bool",
              "name": "isValue",
              "type": "bool"
            }
          ],
          "internalType": "struct Regional.regionalDetails",
          "name": "",
          "type": "tuple"
        }
      ],
      "payable": false,
      "stateMutability": "view",
      "type": "function"
    },
    {
      "constant": true,
      "inputs": [
        {
          "internalType": "address",
          "name": "user",
          "type": "address"
        }
      ],
      "name": "Exists",
      "outputs": [
        {
          "internalType": "bool",
          "name": "exists",
          "type": "bool"
        }
      ],
      "payable": false,
      "stateMutability": "view",
      "type": "function"
    },
    {
      "constant": false,
      "inputs": [
        {
          "internalType": "string",
          "name": "_quantity",
          "type": "string"
        }
      ],
      "name": "getPackage",
      "outputs": [],
      "payable": false,
      "stateMutability": "nonpayable",
      "type": "function"
    },
    {
      "constant": true,
      "inputs": [],
      "name": "getQuantity",
      "outputs": [
        {
          "internalType": "string",
          "name": "",
          "type": "string"
        }
      ],
      "payable": false,
      "stateMutability": "view",
      "type": "function"
    }
  ],
  "bytecode": "0x608060405234801561001057600080fd5b50610de6806100206000396000f3fe608060405234801561001057600080fd5b50600436106100625760003560e01c80630115949c1461006757806342aa4ead1461008557806387c60483146100a15780639f7c1a44146100bd578063ca9e6b1c146100f0578063cda981d514610120575b600080fd5b61006f610150565b60405161007c9190610bcc565b60405180910390f35b61009f600480360361009a91908101906109e0565b6101f2565b005b6100bb60048036036100b6919081019061099f565b6102d4565b005b6100d760048036036100d29190810190610976565b6102ee565b6040516100e79493929190610bee565b60405180910390f35b61010a60048036036101059190810190610976565b6104f3565b6040516101179190610c48565b60405180910390f35b61013a60048036036101359190810190610976565b61074d565b6040516101479190610bb1565b60405180910390f35b606060008054600181600116156101000203166002900480601f0160208091040260200160405190810160405280929190818152602001828054600181600116156101000203166002900480156101e85780601f106101bd576101008083540402835291602001916101e8565b820191906000526020600020905b8154815290600101906020018083116101cb57829003601f168201915b5050505050905090565b604051806080016040528084815260200183815260200182815260200160011515815250600160003373ffffffffffffffffffffffffffffffffffffffff1673ffffffffffffffffffffffffffffffffffffffff16815260200190815260200160002060008201518160000190805190602001906102719291906107be565b50602082015181600101908051906020019061028e9291906107be565b5060408201518160020190805190602001906102ab9291906107be565b5060608201518160030160006101000a81548160ff021916908315150217905550905050505050565b80600090805190602001906102ea92919061083e565b5050565b6001602052806000526040600020600091509050806000018054600181600116156101000203166002900480601f01602080910402602001604051908101604052809291908181526020018280546001816001161561010002031660029004801561039a5780601f1061036f5761010080835404028352916020019161039a565b820191906000526020600020905b81548152906001019060200180831161037d57829003601f168201915b505050505090806001018054600181600116156101000203166002900480601f0160208091040260200160405190810160405280929190818152602001828054600181600116156101000203166002900480156104385780601f1061040d57610100808354040283529160200191610438565b820191906000526020600020905b81548152906001019060200180831161041b57829003601f168201915b505050505090806002018054600181600116156101000203166002900480601f0160208091040260200160405190810160405280929190818152602001828054600181600116156101000203166002900480156104d65780601f106104ab576101008083540402835291602001916104d6565b820191906000526020600020905b8154815290600101906020018083116104b957829003601f168201915b5050505050908060030160009054906101000a900460ff16905084565b6104fb6108be565b600160008373ffffffffffffffffffffffffffffffffffffffff1673ffffffffffffffffffffffffffffffffffffffff168152602001908152602001600020604051806080016040529081600082018054600181600116156101000203166002900480601f0160208091040260200160405190810160405280929190818152602001828054600181600116156101000203166002900480156105de5780601f106105b3576101008083540402835291602001916105de565b820191906000526020600020905b8154815290600101906020018083116105c157829003601f168201915b50505050508152602001600182018054600181600116156101000203166002900480601f0160208091040260200160405190810160405280929190818152602001828054600181600116156101000203166002900480156106805780601f1061065557610100808354040283529160200191610680565b820191906000526020600020905b81548152906001019060200180831161066357829003601f168201915b50505050508152602001600282018054600181600116156101000203166002900480601f0160208091040260200160405190810160405280929190818152602001828054600181600116156101000203166002900480156107225780601f106106f757610100808354040283529160200191610722565b820191906000526020600020905b81548152906001019060200180831161070557829003601f168201915b505050505081526020016003820160009054906101000a900460ff1615151515815250509050919050565b600060011515600160008473ffffffffffffffffffffffffffffffffffffffff1673ffffffffffffffffffffffffffffffffffffffff16815260200190815260200160002060030160009054906101000a900460ff16151514156107b457600190506107b9565b600090505b919050565b828054600181600116156101000203166002900490600052602060002090601f016020900481019282601f106107ff57805160ff191683800117855561082d565b8280016001018555821561082d579182015b8281111561082c578251825591602001919060010190610811565b5b50905061083a91906108e8565b5090565b828054600181600116156101000203166002900490600052602060002090601f016020900481019282601f1061087f57805160ff19168380011785556108ad565b828001600101855582156108ad579182015b828111156108ac578251825591602001919060010190610891565b5b5090506108ba91906108e8565b5090565b60405180608001604052806060815260200160608152602001606081526020016000151581525090565b61090a91905b808211156109065760008160009055506001016108ee565b5090565b90565b60008135905061091c81610d8c565b92915050565b600082601f83011261093357600080fd5b813561094661094182610c97565b610c6a565b9150808252602083016020830185838301111561096257600080fd5b61096d838284610d39565b50505092915050565b60006020828403121561098857600080fd5b60006109968482850161090d565b91505092915050565b6000602082840312156109b157600080fd5b600082013567ffffffffffffffff8111156109cb57600080fd5b6109d784828501610922565b91505092915050565b6000806000606084860312156109f557600080fd5b600084013567ffffffffffffffff811115610a0f57600080fd5b610a1b86828701610922565b935050602084013567ffffffffffffffff811115610a3857600080fd5b610a4486828701610922565b925050604084013567ffffffffffffffff811115610a6157600080fd5b610a6d86828701610922565b9150509250925092565b610a8081610d0d565b82525050565b610a8f81610d0d565b82525050565b6000610aa082610cce565b610aaa8185610cea565b9350610aba818560208601610d48565b610ac381610d7b565b840191505092915050565b6000610ad982610cc3565b610ae38185610cd9565b9350610af3818560208601610d48565b610afc81610d7b565b840191505092915050565b6000610b1282610cc3565b610b1c8185610cea565b9350610b2c818560208601610d48565b610b3581610d7b565b840191505092915050565b60006080830160008301518482036000860152610b5d8282610ace565b91505060208301518482036020860152610b778282610ace565b91505060408301518482036040860152610b918282610ace565b9150506060830151610ba66060860182610a77565b508091505092915050565b6000602082019050610bc66000830184610a86565b92915050565b60006020820190508181036000830152610be68184610a95565b905092915050565b60006080820190508181036000830152610c088187610b07565b90508181036020830152610c1c8186610b07565b90508181036040830152610c308185610b07565b9050610c3f6060830184610a86565b95945050505050565b60006020820190508181036000830152610c628184610b40565b905092915050565b6000604051905081810181811067ffffffffffffffff82111715610c8d57600080fd5b8060405250919050565b600067ffffffffffffffff821115610cae57600080fd5b601f19601f8301169050602081019050919050565b600081519050919050565b600081519050919050565b600082825260208201905092915050565b600082825260208201905092915050565b6000610d0682610d19565b9050919050565b60008115159050919050565b600073ffffffffffffffffffffffffffffffffffffffff82169050919050565b82818337600083830152505050565b60005b83811015610d66578082015181840152602081019050610d4b565b83811115610d75576000848401525b50505050565b6000601f19601f8301169050919050565b610d9581610cfb565b8114610da057600080fd5b5056fea365627a7a72315820952cc29f51d3ad99fb962a8ce000d30d4e4ecd75687f98818f028a9d83213e576c6578706572696d656e74616cf564736f6c63430005100040",
  "source": "pragma solidity >=0.4.21 <0.7.0;\npragma experimental ABIEncoderV2;\n\ncontract Regional {\n    struct regionalDetails{\n        string Name;\n        string Id;\n        string Email;\n        bool isValue;\n    }\n\n    string quantity;\n\n    mapping (address => regionalDetails) public GroupOfRegional;\n\n    function setRegDetails(string memory _Name, string memory _Id, string memory _Email) public {\n        GroupOfRegional[msg.sender] = regionalDetails({\n            Name: _Name,\n            Id: _Id,\n            Email: _Email,\n            isValue: true\n        });\n    }\n\n    function getRegDetails(address user) public view returns(regionalDetails memory){\n        return GroupOfRegional[user];\n    }\n\n    function Exists(address user) public view returns(bool exists) {\n        if(GroupOfRegional[user].isValue == true) return true;\n        return false;\n    }\n\n    function getPackage(string memory _quantity) public {\n        quantity = _quantity;\n    }\n\n    function getQuantity() public view returns (string memory){\n        return quantity;\n    }\n\n}",
  "sourcePath": "/home/akanksha/SupplyChain_Hashcode21/SupplyChain_TeamEthConnect/contracts/Regional.sol",
  "compiler": {
    "name": "solc",
    "version": "0.5.16+commit.9c3226ce.Emscripten.clang"
  },
  "schemaVersion": "3.4.3",
  "updatedAt": "2022-02-13T01:37:16.439Z",
  "networkType": "ethereum",
  "devdoc": {
    "methods": {}
  },
  "userdoc": {
    "methods": {}
  }
}