{
  "contractName": "tracking",
  "abi": [
    {
      "constant": false,
      "inputs": [],
      "name": "setmColor",
      "outputs": [],
      "payable": false,
      "stateMutability": "nonpayable",
      "type": "function"
    },
    {
      "constant": false,
      "inputs": [],
      "name": "settColor",
      "outputs": [],
      "payable": false,
      "stateMutability": "nonpayable",
      "type": "function"
    },
    {
      "constant": false,
      "inputs": [],
      "name": "setdColor",
      "outputs": [],
      "payable": false,
      "stateMutability": "nonpayable",
      "type": "function"
    },
    {
      "constant": false,
      "inputs": [],
      "name": "setrColor",
      "outputs": [],
      "payable": false,
      "stateMutability": "nonpayable",
      "type": "function"
    },
    {
      "constant": true,
      "inputs": [],
      "name": "getmColor",
      "outputs": [
        {
          "internalType": "bool",
          "name": "exists",
          "type": "bool"
        }
      ],
      "payable": false,
      "stateMutability": "view",
      "type": "function"
    },
    {
      "constant": true,
      "inputs": [],
      "name": "gettColor",
      "outputs": [
        {
          "internalType": "bool",
          "name": "exists",
          "type": "bool"
        }
      ],
      "payable": false,
      "stateMutability": "view",
      "type": "function"
    },
    {
      "constant": true,
      "inputs": [],
      "name": "getdColor",
      "outputs": [
        {
          "internalType": "bool",
          "name": "exists",
          "type": "bool"
        }
      ],
      "payable": false,
      "stateMutability": "view",
      "type": "function"
    },
    {
      "constant": true,
      "inputs": [],
      "name": "getrColor",
      "outputs": [
        {
          "internalType": "bool",
          "name": "exists",
          "type": "bool"
        }
      ],
      "payable": false,
      "stateMutability": "view",
      "type": "function"
    }
  ],
  "bytecode": "0x608060405260008060006101000a81548160ff02191690831515021790555060008060016101000a81548160ff02191690831515021790555060008060026101000a81548160ff02191690831515021790555060008060036101000a81548160ff02191690831515021790555034801561007857600080fd5b50610271806100886000396000f3fe608060405234801561001057600080fd5b50600436106100885760003560e01c806359be66441161005b57806359be6644146100f1578063a439ac951461010f578063d26e508d14610119578063ec6c18be1461012357610088565b80630c3631bb1461008d5780631b17ca8b146100ab57806325ea60e3146100b55780634b59d412146100d3575b600080fd5b61009561012d565b6040516100a29190610207565b60405180910390f35b6100b3610143565b005b6100bd61015f565b6040516100ca9190610207565b60405180910390f35b6100db610175565b6040516100e89190610207565b60405180910390f35b6100f961018b565b6040516101069190610207565b60405180910390f35b6101176101a1565b005b6101216101be565b005b61012b6101db565b005b60008060039054906101000a900460ff16905090565b60016000806101000a81548160ff021916908315150217905550565b60008060019054906101000a900460ff16905090565b60008060009054906101000a900460ff16905090565b60008060029054906101000a900460ff16905090565b6001600060036101000a81548160ff021916908315150217905550565b6001600060026101000a81548160ff021916908315150217905550565b6001600060016101000a81548160ff021916908315150217905550565b61020181610222565b82525050565b600060208201905061021c60008301846101f8565b92915050565b6000811515905091905056fea365627a7a72315820946098dc53103857364515a727d1458df4fd4b4b3e2c94af57044a54dc9b87106c6578706572696d656e74616cf564736f6c63430005100040",
  "source": "pragma solidity >=0.4.21 <0.7.0;\npragma experimental ABIEncoderV2;\n\ncontract tracking{\n    bool mColor=false;\n    bool tColor=false;\n    bool dColor=false;\n    bool rColor=false;\n\n    function setmColor() public{\n        mColor=true;\n    }\n    function settColor() public{\n        tColor=true;\n    }\n    function setdColor() public{\n        dColor=true;\n    }\n    function setrColor() public{\n        rColor=true;\n    }\n    function getmColor() public view returns (bool exists){\n        return mColor;\n    }\n    function gettColor() public view returns (bool exists){\n        return tColor;\n    }\n    function getdColor() public view returns (bool exists){\n        return dColor;\n    }\n    function getrColor() public view returns (bool exists){\n        return rColor;\n    }\n}",
  "sourcePath": "/home/akanksha/SupplyChain_Hashcode21/SupplyChain_TeamEthConnect/contracts/tracking.sol",
  "compiler": {
    "name": "solc",
    "version": "0.5.16+commit.9c3226ce.Emscripten.clang"
  },
  "schemaVersion": "3.4.3",
  "updatedAt": "2022-02-13T01:37:16.441Z",
  "networkType": "ethereum",
  "devdoc": {
    "methods": {}
  },
  "userdoc": {
    "methods": {}
  }
}