{
  "contractName": "Transporter",
  "abi": [
    {
      "constant": true,
      "inputs": [
        {
          "internalType": "address",
          "name": "",
          "type": "address"
        }
      ],
      "name": "GroupOfTransporters",
      "outputs": [
        {
          "internalType": "string",
          "name": "Name",
          "type": "string"
        },
        {
          "internalType": "string",
          "name": "Id",
          "type": "string"
        },
        {
          "internalType": "string",
          "name": "Email",
          "type": "string"
        },
        {
          "internalType": "bool",
          "name": "isValue",
          "type": "bool"
        }
      ],
      "payable": false,
      "stateMutability": "view",
      "type": "function"
    },
    {
      "constant": false,
      "inputs": [
        {
          "internalType": "string",
          "name": "_Name",
          "type": "string"
        },
        {
          "internalType": "string",
          "name": "_Id",
          "type": "string"
        },
        {
          "internalType": "string",
          "name": "_Email",
          "type": "string"
        }
      ],
      "name": "setTranDetails",
      "outputs": [],
      "payable": false,
      "stateMutability": "nonpayable",
      "type": "function"
    },
    {
      "constant": true,
      "inputs": [
        {
          "internalType": "address",
          "name": "user",
          "type": "address"
        }
      ],
      "name": "getTranDetails",
      "outputs": [
        {
          "components": [
            {
              "internalType": "string",
              "name": "Name",
              "type": "string"
            },
            {
              "internalType": "string",
              "name": "Id",
              "type": "string"
            },
            {
              "internalType": "string",
              "name": "Email",
              "type": "string"
            },
            {
              "internalType": "bool",
              "name": "isValue",
              "type": "bool"
            }
          ],
          "internalType": "struct Transporter.transporterDetails",
          "name": "",
          "type": "tuple"
        }
      ],
      "payable": false,
      "stateMutability": "view",
      "type": "function"
    },
    {
      "constant": true,
      "inputs": [
        {
          "internalType": "address",
          "name": "user",
          "type": "address"
        }
      ],
      "name": "Exists",
      "outputs": [
        {
          "internalType": "bool",
          "name": "exists",
          "type": "bool"
        }
      ],
      "payable": false,
      "stateMutability": "view",
      "type": "function"
    },
    {
      "constant": true,
      "inputs": [],
      "name": "getTranAdd",
      "outputs": [
        {
          "internalType": "address[]",
          "name": "",
          "type": "address[]"
        }
      ],
      "payable": false,
      "stateMutability": "view",
      "type": "function"
    },
    {
      "constant": true,
      "inputs": [],
      "name": "getTranNames",
      "outputs": [
        {
          "internalType": "string[]",
          "name": "",
          "type": "string[]"
        }
      ],
      "payable": false,
      "stateMutability": "view",
      "type": "function"
    },
    {
      "constant": false,
      "inputs": [
        {
          "internalType": "string",
          "name": "_quantity",
          "type": "string"
        },
        {
          "internalType": "string",
          "name": "_ManuID",
          "type": "string"
        }
      ],
      "name": "getPackage",
      "outputs": [],
      "payable": false,
      "stateMutability": "nonpayable",
      "type": "function"
    }
  ],
  "bytecode": "0x608060405234801561001057600080fd5b50611123806100206000396000f3fe608060405234801561001057600080fd5b506004361061007d5760003560e01c8063a692136b1161005b578063a692136b14610103578063b2210ad014610121578063cda981d51461013d578063dd09185f1461016d5761007d565b80630363311814610082578063a187b9ce146100b5578063a2c0d741146100d3575b600080fd5b61009c60048036036100979190810190610b2a565b610189565b6040516100ac9493929190610ec4565b60405180910390f35b6100bd61038e565b6040516100ca9190610e65565b60405180910390f35b6100ed60048036036100e89190810190610b2a565b61041c565b6040516100fa9190610f1e565b60405180910390f35b61010b610676565b6040516101189190610e87565b60405180910390f35b61013b60048036036101369190810190610b53565b61075f565b005b61015760048036036101529190810190610b2a565b61077a565b6040516101649190610ea9565b60405180910390f35b61018760048036036101829190810190610bbf565b6107eb565b005b6001602052806000526040600020600091509050806000018054600181600116156101000203166002900480601f0160208091040260200160405190810160405280929190818152602001828054600181600116156101000203166002900480156102355780601f1061020a57610100808354040283529160200191610235565b820191906000526020600020905b81548152906001019060200180831161021857829003601f168201915b505050505090806001018054600181600116156101000203166002900480601f0160208091040260200160405190810160405280929190818152602001828054600181600116156101000203166002900480156102d35780601f106102a8576101008083540402835291602001916102d3565b820191906000526020600020905b8154815290600101906020018083116102b657829003601f168201915b505050505090806002018054600181600116156101000203166002900480601f0160208091040260200160405190810160405280929190818152602001828054600181600116156101000203166002900480156103715780601f1061034657610100808354040283529160200191610371565b820191906000526020600020905b81548152906001019060200180831161035457829003601f168201915b5050505050908060030160009054906101000a900460ff16905084565b6060600280548060200260200160405190810160405280929190818152602001828054801561041257602002820191906000526020600020905b8160009054906101000a900473ffffffffffffffffffffffffffffffffffffffff1673ffffffffffffffffffffffffffffffffffffffff16815260200190600101908083116103c8575b5050505050905090565b610424610972565b600160008373ffffffffffffffffffffffffffffffffffffffff1673ffffffffffffffffffffffffffffffffffffffff168152602001908152602001600020604051806080016040529081600082018054600181600116156101000203166002900480601f0160208091040260200160405190810160405280929190818152602001828054600181600116156101000203166002900480156105075780601f106104dc57610100808354040283529160200191610507565b820191906000526020600020905b8154815290600101906020018083116104ea57829003601f168201915b50505050508152602001600182018054600181600116156101000203166002900480601f0160208091040260200160405190810160405280929190818152602001828054600181600116156101000203166002900480156105a95780601f1061057e576101008083540402835291602001916105a9565b820191906000526020600020905b81548152906001019060200180831161058c57829003601f168201915b50505050508152602001600282018054600181600116156101000203166002900480601f01602080910402602001604051908101604052809291908181526020018280546001816001161561010002031660029004801561064b5780601f106106205761010080835404028352916020019161064b565b820191906000526020600020905b81548152906001019060200180831161062e57829003601f168201915b505050505081526020016003820160009054906101000a900460ff1615151515815250509050919050565b60606003805480602002602001604051908101604052809291908181526020016000905b82821015610756578382906000526020600020018054600181600116156101000203166002900480601f0160208091040260200160405190810160405280929190818152602001828054600181600116156101000203166002900480156107425780601f1061071757610100808354040283529160200191610742565b820191906000526020600020905b81548152906001019060200180831161072557829003601f168201915b50505050508152602001906001019061069a565b50505050905090565b816000908051906020019061077592919061099c565b505050565b600060011515600160008473ffffffffffffffffffffffffffffffffffffffff1673ffffffffffffffffffffffffffffffffffffffff16815260200190815260200160002060030160009054906101000a900460ff16151514156107e157600190506107e6565b600090505b919050565b604051806080016040528084815260200183815260200182815260200160011515815250600160003373ffffffffffffffffffffffffffffffffffffffff1673ffffffffffffffffffffffffffffffffffffffff168152602001908152602001600020600082015181600001908051906020019061086a929190610a1c565b506020820151816001019080519060200190610887929190610a1c565b5060408201518160020190805190602001906108a4929190610a1c565b5060608201518160030160006101000a81548160ff02191690831515021790555090505060023390806001815401808255809150509060018203906000526020600020016000909192909190916101000a81548173ffffffffffffffffffffffffffffffffffffffff021916908373ffffffffffffffffffffffffffffffffffffffff16021790555050600383908060018154018082558091505090600182039060005260206000200160009091929091909150908051906020019061096b92919061099c565b5050505050565b60405180608001604052806060815260200160608152602001606081526020016000151581525090565b828054600181600116156101000203166002900490600052602060002090601f016020900481019282601f106109dd57805160ff1916838001178555610a0b565b82800160010185558215610a0b579182015b82811115610a0a5782518255916020019190600101906109ef565b5b509050610a189190610a9c565b5090565b828054600181600116156101000203166002900490600052602060002090601f016020900481019282601f10610a5d57805160ff1916838001178555610a8b565b82800160010185558215610a8b579182015b82811115610a8a578251825591602001919060010190610a6f565b5b509050610a989190610a9c565b5090565b610abe91905b80821115610aba576000816000905550600101610aa2565b5090565b90565b600081359050610ad0816110c9565b92915050565b600082601f830112610ae757600080fd5b8135610afa610af582610f6d565b610f40565b91508082526020830160208301858383011115610b1657600080fd5b610b21838284611076565b50505092915050565b600060208284031215610b3c57600080fd5b6000610b4a84828501610ac1565b91505092915050565b60008060408385031215610b6657600080fd5b600083013567ffffffffffffffff811115610b8057600080fd5b610b8c85828601610ad6565b925050602083013567ffffffffffffffff811115610ba957600080fd5b610bb585828601610ad6565b9150509250929050565b600080600060608486031215610bd457600080fd5b600084013567ffffffffffffffff811115610bee57600080fd5b610bfa86828701610ad6565b935050602084013567ffffffffffffffff811115610c1757600080fd5b610c2386828701610ad6565b925050604084013567ffffffffffffffff811115610c4057600080fd5b610c4c86828701610ad6565b9150509250925092565b6000610c628383610c82565b60208301905092915050565b6000610c7a8383610d82565b905092915050565b610c8b81611038565b82525050565b6000610c9c82610fb9565b610ca68185610ff4565b9350610cb183610f99565b8060005b83811015610ce2578151610cc98882610c56565b9750610cd483610fda565b925050600181019050610cb5565b5085935050505092915050565b6000610cfa82610fc4565b610d048185611005565b935083602082028501610d1685610fa9565b8060005b85811015610d525784840389528151610d338582610c6e565b9450610d3e83610fe7565b925060208a01995050600181019050610d1a565b50829750879550505050505092915050565b610d6d8161104a565b82525050565b610d7c8161104a565b82525050565b6000610d8d82610fcf565b610d978185611016565b9350610da7818560208601611085565b610db0816110b8565b840191505092915050565b6000610dc682610fcf565b610dd08185611027565b9350610de0818560208601611085565b610de9816110b8565b840191505092915050565b60006080830160008301518482036000860152610e118282610d82565b91505060208301518482036020860152610e2b8282610d82565b91505060408301518482036040860152610e458282610d82565b9150506060830151610e5a6060860182610d64565b508091505092915050565b60006020820190508181036000830152610e7f8184610c91565b905092915050565b60006020820190508181036000830152610ea18184610cef565b905092915050565b6000602082019050610ebe6000830184610d73565b92915050565b60006080820190508181036000830152610ede8187610dbb565b90508181036020830152610ef28186610dbb565b90508181036040830152610f068185610dbb565b9050610f156060830184610d73565b95945050505050565b60006020820190508181036000830152610f388184610df4565b905092915050565b6000604051905081810181811067ffffffffffffffff82111715610f6357600080fd5b8060405250919050565b600067ffffffffffffffff821115610f8457600080fd5b601f19601f8301169050602081019050919050565b6000819050602082019050919050565b6000819050602082019050919050565b600081519050919050565b600081519050919050565b600081519050919050565b6000602082019050919050565b6000602082019050919050565b600082825260208201905092915050565b600082825260208201905092915050565b600082825260208201905092915050565b600082825260208201905092915050565b600061104382611056565b9050919050565b60008115159050919050565b600073ffffffffffffffffffffffffffffffffffffffff82169050919050565b82818337600083830152505050565b60005b838110156110a3578082015181840152602081019050611088565b838111156110b2576000848401525b50505050565b6000601f19601f8301169050919050565b6110d281611038565b81146110dd57600080fd5b5056fea365627a7a723158200fbf35e5e0347b4238d67d7b8e1efaefc885cb331385d8265c181d167824d5886c6578706572696d656e74616cf564736f6c63430005100040",
  "source": "pragma solidity >=0.4.21 <0.7.0;\npragma experimental ABIEncoderV2;\n\ncontract Transporter {\n    struct transporterDetails{\n        string Name;\n        string Id;\n        string Email;\n        bool isValue;\n    }\n\n    string quantity;\n    \n\n    mapping (address => transporterDetails) public GroupOfTransporters;\n    address[] TranAdd;\n    string[] TranNames;\n\n    \n\n    function setTranDetails(string memory _Name, string memory _Id, string memory _Email) public {\n        GroupOfTransporters[msg.sender] = transporterDetails({\n            Name: _Name,\n            Id: _Id,\n            Email: _Email,\n            isValue: true\n        });\n\n        TranAdd.push(msg.sender);\n        TranNames.push(_Name);\n    }\n\n    function getTranDetails(address user) public view returns(transporterDetails memory){\n        return GroupOfTransporters[user];\n    }\n\n    function Exists(address user) public view returns(bool exists) {\n        if(GroupOfTransporters[user].isValue == true) return true;\n        return false;\n    }\n\n    function getTranAdd() public view returns (address[] memory){\n        return TranAdd;\n    }\n\n    function getTranNames() public view returns (string[] memory){\n        return TranNames;\n    }\n\n    function getPackage(string memory _quantity, string memory _ManuID) public {\n        quantity = _quantity;\n    }\n\n\n}",
  "sourcePath": "/home/akanksha/SupplyChain_Hashcode21/SupplyChain_TeamEthConnect/contracts/Transporter.sol",
  "compiler": {
    "name": "solc",
    "version": "0.5.16+commit.9c3226ce.Emscripten.clang"
  },
  "schemaVersion": "3.4.3",
  "updatedAt": "2022-02-12T19:53:29.183Z",
  "networkType": "ethereum",
  "devdoc": {
    "methods": {}
  },
  "userdoc": {
    "methods": {}
  }
}