{
  "contractName": "Transporter",
  "abi": [
    {
      "constant": true,
      "inputs": [
        {
          "internalType": "address",
          "name": "",
          "type": "address"
        }
      ],
      "name": "GroupOfTransporters",
      "outputs": [
        {
          "internalType": "string",
          "name": "Name",
          "type": "string"
        },
        {
          "internalType": "string",
          "name": "Id",
          "type": "string"
        },
        {
          "internalType": "string",
          "name": "Email",
          "type": "string"
        },
        {
          "internalType": "bool",
          "name": "isValue",
          "type": "bool"
        }
      ],
      "payable": false,
      "stateMutability": "view",
      "type": "function"
    },
    {
      "constant": false,
      "inputs": [
        {
          "internalType": "string",
          "name": "_Name",
          "type": "string"
        },
        {
          "internalType": "string",
          "name": "_Id",
          "type": "string"
        },
        {
          "internalType": "string",
          "name": "_Email",
          "type": "string"
        }
      ],
      "name": "setTranDetails",
      "outputs": [],
      "payable": false,
      "stateMutability": "nonpayable",
      "type": "function"
    },
    {
      "constant": true,
      "inputs": [
        {
          "internalType": "address",
          "name": "user",
          "type": "address"
        }
      ],
      "name": "getTranDetails",
      "outputs": [
        {
          "components": [
            {
              "internalType": "string",
              "name": "Name",
              "type": "string"
            },
            {
              "internalType": "string",
              "name": "Id",
              "type": "string"
            },
            {
              "internalType": "string",
              "name": "Email",
              "type": "string"
            },
            {
              "internalType": "bool",
              "name": "isValue",
              "type": "bool"
            }
          ],
          "internalType": "struct Transporter.transporterDetails",
          "name": "",
          "type": "tuple"
        }
      ],
      "payable": false,
      "stateMutability": "view",
      "type": "function"
    },
    {
      "constant": true,
      "inputs": [
        {
          "internalType": "address",
          "name": "user",
          "type": "address"
        }
      ],
      "name": "Exists",
      "outputs": [
        {
          "internalType": "bool",
          "name": "exists",
          "type": "bool"
        }
      ],
      "payable": false,
      "stateMutability": "view",
      "type": "function"
    }
  ],
  "bytecode": "0x608060405234801561001057600080fd5b50610bb0806100206000396000f3fe608060405234801561001057600080fd5b506004361061004c5760003560e01c80630363311814610051578063a2c0d74114610084578063cda981d5146100b4578063dd09185f146100e4575b600080fd5b61006b600480360361006691908101906107e7565b610100565b60405161007b94939291906109c3565b60405180910390f35b61009e600480360361009991908101906107e7565b610305565b6040516100ab9190610a1d565b60405180910390f35b6100ce60048036036100c991908101906107e7565b61055e565b6040516100db91906109a8565b60405180910390f35b6100fe60048036036100f99190810190610810565b6105ce565b005b6000602052806000526040600020600091509050806000018054600181600116156101000203166002900480601f0160208091040260200160405190810160405280929190818152602001828054600181600116156101000203166002900480156101ac5780601f10610181576101008083540402835291602001916101ac565b820191906000526020600020905b81548152906001019060200180831161018f57829003601f168201915b505050505090806001018054600181600116156101000203166002900480601f01602080910402602001604051908101604052809291908181526020018280546001816001161561010002031660029004801561024a5780601f1061021f5761010080835404028352916020019161024a565b820191906000526020600020905b81548152906001019060200180831161022d57829003601f168201915b505050505090806002018054600181600116156101000203166002900480601f0160208091040260200160405190810160405280929190818152602001828054600181600116156101000203166002900480156102e85780601f106102bd576101008083540402835291602001916102e8565b820191906000526020600020905b8154815290600101906020018083116102cb57829003601f168201915b5050505050908060030160009054906101000a900460ff16905084565b61030d6106af565b6000808373ffffffffffffffffffffffffffffffffffffffff1673ffffffffffffffffffffffffffffffffffffffff168152602001908152602001600020604051806080016040529081600082018054600181600116156101000203166002900480601f0160208091040260200160405190810160405280929190818152602001828054600181600116156101000203166002900480156103ef5780601f106103c4576101008083540402835291602001916103ef565b820191906000526020600020905b8154815290600101906020018083116103d257829003601f168201915b50505050508152602001600182018054600181600116156101000203166002900480601f0160208091040260200160405190810160405280929190818152602001828054600181600116156101000203166002900480156104915780601f1061046657610100808354040283529160200191610491565b820191906000526020600020905b81548152906001019060200180831161047457829003601f168201915b50505050508152602001600282018054600181600116156101000203166002900480601f0160208091040260200160405190810160405280929190818152602001828054600181600116156101000203166002900480156105335780601f1061050857610100808354040283529160200191610533565b820191906000526020600020905b81548152906001019060200180831161051657829003601f168201915b505050505081526020016003820160009054906101000a900460ff1615151515815250509050919050565b6000600115156000808473ffffffffffffffffffffffffffffffffffffffff1673ffffffffffffffffffffffffffffffffffffffff16815260200190815260200160002060030160009054906101000a900460ff16151514156105c457600190506105c9565b600090505b919050565b6040518060800160405280848152602001838152602001828152602001600115158152506000803373ffffffffffffffffffffffffffffffffffffffff1673ffffffffffffffffffffffffffffffffffffffff168152602001908152602001600020600082015181600001908051906020019061064c9291906106d9565b5060208201518160010190805190602001906106699291906106d9565b5060408201518160020190805190602001906106869291906106d9565b5060608201518160030160006101000a81548160ff021916908315150217905550905050505050565b60405180608001604052806060815260200160608152602001606081526020016000151581525090565b828054600181600116156101000203166002900490600052602060002090601f016020900481019282601f1061071a57805160ff1916838001178555610748565b82800160010185558215610748579182015b8281111561074757825182559160200191906001019061072c565b5b5090506107559190610759565b5090565b61077b91905b8082111561077757600081600090555060010161075f565b5090565b90565b60008135905061078d81610b56565b92915050565b600082601f8301126107a457600080fd5b81356107b76107b282610a6c565b610a3f565b915080825260208301602083018583830111156107d357600080fd5b6107de838284610b03565b50505092915050565b6000602082840312156107f957600080fd5b60006108078482850161077e565b91505092915050565b60008060006060848603121561082557600080fd5b600084013567ffffffffffffffff81111561083f57600080fd5b61084b86828701610793565b935050602084013567ffffffffffffffff81111561086857600080fd5b61087486828701610793565b925050604084013567ffffffffffffffff81111561089157600080fd5b61089d86828701610793565b9150509250925092565b6108b081610ad7565b82525050565b6108bf81610ad7565b82525050565b60006108d082610a98565b6108da8185610aa3565b93506108ea818560208601610b12565b6108f381610b45565b840191505092915050565b600061090982610a98565b6109138185610ab4565b9350610923818560208601610b12565b61092c81610b45565b840191505092915050565b6000608083016000830151848203600086015261095482826108c5565b9150506020830151848203602086015261096e82826108c5565b9150506040830151848203604086015261098882826108c5565b915050606083015161099d60608601826108a7565b508091505092915050565b60006020820190506109bd60008301846108b6565b92915050565b600060808201905081810360008301526109dd81876108fe565b905081810360208301526109f181866108fe565b90508181036040830152610a0581856108fe565b9050610a1460608301846108b6565b95945050505050565b60006020820190508181036000830152610a378184610937565b905092915050565b6000604051905081810181811067ffffffffffffffff82111715610a6257600080fd5b8060405250919050565b600067ffffffffffffffff821115610a8357600080fd5b601f19601f8301169050602081019050919050565b600081519050919050565b600082825260208201905092915050565b600082825260208201905092915050565b6000610ad082610ae3565b9050919050565b60008115159050919050565b600073ffffffffffffffffffffffffffffffffffffffff82169050919050565b82818337600083830152505050565b60005b83811015610b30578082015181840152602081019050610b15565b83811115610b3f576000848401525b50505050565b6000601f19601f8301169050919050565b610b5f81610ac5565b8114610b6a57600080fd5b5056fea365627a7a723158204be99da6dcd7fdd2c84456f64f7bf1eac58035383596f3d293d6ba5d209b98b26c6578706572696d656e74616cf564736f6c63430005100040",
  "source": "pragma solidity >=0.4.21 <0.7.0;\npragma experimental ABIEncoderV2;\n\ncontract Transporter {\n    struct transporterDetails{\n        string Name;\n        string Id;\n        string Email;\n        bool isValue;\n    }\n\n    mapping (address => transporterDetails) public GroupOfTransporters;\n\n    function setTranDetails(string memory _Name, string memory _Id, string memory _Email) public {\n        GroupOfTransporters[msg.sender] = transporterDetails({\n            Name: _Name,\n            Id: _Id,\n            Email: _Email,\n            isValue: true\n        });\n    }\n\n    function getTranDetails(address user) public view returns(transporterDetails memory){\n        return GroupOfTransporters[user];\n    }\n\n    function Exists(address user) public view returns(bool exists) {\n        if(GroupOfTransporters[user].isValue == true) return true;\n        return false;\n    }\n}",
  "sourcePath": "/home/akanksha/SupplyChain_Hashcode21/SupplyChain_TeamEthConnect/contracts/Transporter.sol",
  "compiler": {
    "name": "solc",
    "version": "0.5.16+commit.9c3226ce.Emscripten.clang"
  },
  "schemaVersion": "3.4.3",
  "updatedAt": "2022-02-12T12:34:17.095Z",
  "networkType": "ethereum",
  "devdoc": {
    "methods": {}
  },
  "userdoc": {
    "methods": {}
  }
}