{
  "contractName": "Transporter",
  "abi": [
    {
      "constant": true,
      "inputs": [
        {
          "internalType": "address",
          "name": "",
          "type": "address"
        }
      ],
      "name": "GroupOfTransporters",
      "outputs": [
        {
          "internalType": "string",
          "name": "Name",
          "type": "string"
        },
        {
          "internalType": "string",
          "name": "Id",
          "type": "string"
        },
        {
          "internalType": "string",
          "name": "Email",
          "type": "string"
        },
        {
          "internalType": "bool",
          "name": "isValue",
          "type": "bool"
        }
      ],
      "payable": false,
      "stateMutability": "view",
      "type": "function"
    },
    {
      "constant": false,
      "inputs": [
        {
          "internalType": "string",
          "name": "_Name",
          "type": "string"
        },
        {
          "internalType": "string",
          "name": "_Id",
          "type": "string"
        },
        {
          "internalType": "string",
          "name": "_Email",
          "type": "string"
        }
      ],
      "name": "setTranDetails",
      "outputs": [],
      "payable": false,
      "stateMutability": "nonpayable",
      "type": "function"
    },
    {
      "constant": true,
      "inputs": [
        {
          "internalType": "address",
          "name": "user",
          "type": "address"
        }
      ],
      "name": "getTranDetails",
      "outputs": [
        {
          "components": [
            {
              "internalType": "string",
              "name": "Name",
              "type": "string"
            },
            {
              "internalType": "string",
              "name": "Id",
              "type": "string"
            },
            {
              "internalType": "string",
              "name": "Email",
              "type": "string"
            },
            {
              "internalType": "bool",
              "name": "isValue",
              "type": "bool"
            }
          ],
          "internalType": "struct Transporter.transporterDetails",
          "name": "",
          "type": "tuple"
        }
      ],
      "payable": false,
      "stateMutability": "view",
      "type": "function"
    },
    {
      "constant": true,
      "inputs": [
        {
          "internalType": "address",
          "name": "user",
          "type": "address"
        }
      ],
      "name": "Exists",
      "outputs": [
        {
          "internalType": "bool",
          "name": "exists",
          "type": "bool"
        }
      ],
      "payable": false,
      "stateMutability": "view",
      "type": "function"
    },
    {
      "constant": true,
      "inputs": [],
      "name": "getTranAdd",
      "outputs": [
        {
          "internalType": "address[]",
          "name": "",
          "type": "address[]"
        }
      ],
      "payable": false,
      "stateMutability": "view",
      "type": "function"
    },
    {
      "constant": true,
      "inputs": [],
      "name": "getTranNames",
      "outputs": [
        {
          "internalType": "string[]",
          "name": "",
          "type": "string[]"
        }
      ],
      "payable": false,
      "stateMutability": "view",
      "type": "function"
    }
  ],
  "bytecode": "0x608060405234801561001057600080fd5b50611062806100206000396000f3fe608060405234801561001057600080fd5b50600436106100625760003560e01c80630363311814610067578063a187b9ce1461009a578063a2c0d741146100b8578063a692136b146100e8578063cda981d514610106578063dd09185f14610136575b600080fd5b610081600480360361007c9190810190610ad5565b610152565b6040516100919493929190610e03565b60405180910390f35b6100a2610357565b6040516100af9190610da4565b60405180910390f35b6100d260048036036100cd9190810190610ad5565b6103e5565b6040516100df9190610e5d565b60405180910390f35b6100f061063e565b6040516100fd9190610dc6565b60405180910390f35b610120600480360361011b9190810190610ad5565b610727565b60405161012d9190610de8565b60405180910390f35b610150600480360361014b9190810190610afe565b610797565b005b6000602052806000526040600020600091509050806000018054600181600116156101000203166002900480601f0160208091040260200160405190810160405280929190818152602001828054600181600116156101000203166002900480156101fe5780601f106101d3576101008083540402835291602001916101fe565b820191906000526020600020905b8154815290600101906020018083116101e157829003601f168201915b505050505090806001018054600181600116156101000203166002900480601f01602080910402602001604051908101604052809291908181526020018280546001816001161561010002031660029004801561029c5780601f106102715761010080835404028352916020019161029c565b820191906000526020600020905b81548152906001019060200180831161027f57829003601f168201915b505050505090806002018054600181600116156101000203166002900480601f01602080910402602001604051908101604052809291908181526020018280546001816001161561010002031660029004801561033a5780601f1061030f5761010080835404028352916020019161033a565b820191906000526020600020905b81548152906001019060200180831161031d57829003601f168201915b5050505050908060030160009054906101000a900460ff16905084565b606060018054806020026020016040519081016040528092919081815260200182805480156103db57602002820191906000526020600020905b8160009054906101000a900473ffffffffffffffffffffffffffffffffffffffff1673ffffffffffffffffffffffffffffffffffffffff1681526020019060010190808311610391575b5050505050905090565b6103ed61091d565b6000808373ffffffffffffffffffffffffffffffffffffffff1673ffffffffffffffffffffffffffffffffffffffff168152602001908152602001600020604051806080016040529081600082018054600181600116156101000203166002900480601f0160208091040260200160405190810160405280929190818152602001828054600181600116156101000203166002900480156104cf5780601f106104a4576101008083540402835291602001916104cf565b820191906000526020600020905b8154815290600101906020018083116104b257829003601f168201915b50505050508152602001600182018054600181600116156101000203166002900480601f0160208091040260200160405190810160405280929190818152602001828054600181600116156101000203166002900480156105715780601f1061054657610100808354040283529160200191610571565b820191906000526020600020905b81548152906001019060200180831161055457829003601f168201915b50505050508152602001600282018054600181600116156101000203166002900480601f0160208091040260200160405190810160405280929190818152602001828054600181600116156101000203166002900480156106135780601f106105e857610100808354040283529160200191610613565b820191906000526020600020905b8154815290600101906020018083116105f657829003601f168201915b505050505081526020016003820160009054906101000a900460ff1615151515815250509050919050565b60606002805480602002602001604051908101604052809291908181526020016000905b8282101561071e578382906000526020600020018054600181600116156101000203166002900480601f01602080910402602001604051908101604052809291908181526020018280546001816001161561010002031660029004801561070a5780601f106106df5761010080835404028352916020019161070a565b820191906000526020600020905b8154815290600101906020018083116106ed57829003601f168201915b505050505081526020019060010190610662565b50505050905090565b6000600115156000808473ffffffffffffffffffffffffffffffffffffffff1673ffffffffffffffffffffffffffffffffffffffff16815260200190815260200160002060030160009054906101000a900460ff161515141561078d5760019050610792565b600090505b919050565b6040518060800160405280848152602001838152602001828152602001600115158152506000803373ffffffffffffffffffffffffffffffffffffffff1673ffffffffffffffffffffffffffffffffffffffff1681526020019081526020016000206000820151816000019080519060200190610815929190610947565b506020820151816001019080519060200190610832929190610947565b50604082015181600201908051906020019061084f929190610947565b5060608201518160030160006101000a81548160ff02191690831515021790555090505060013390806001815401808255809150509060018203906000526020600020016000909192909190916101000a81548173ffffffffffffffffffffffffffffffffffffffff021916908373ffffffffffffffffffffffffffffffffffffffff1602179055505060028390806001815401808255809150509060018203906000526020600020016000909192909190915090805190602001906109169291906109c7565b5050505050565b60405180608001604052806060815260200160608152602001606081526020016000151581525090565b828054600181600116156101000203166002900490600052602060002090601f016020900481019282601f1061098857805160ff19168380011785556109b6565b828001600101855582156109b6579182015b828111156109b557825182559160200191906001019061099a565b5b5090506109c39190610a47565b5090565b828054600181600116156101000203166002900490600052602060002090601f016020900481019282601f10610a0857805160ff1916838001178555610a36565b82800160010185558215610a36579182015b82811115610a35578251825591602001919060010190610a1a565b5b509050610a439190610a47565b5090565b610a6991905b80821115610a65576000816000905550600101610a4d565b5090565b90565b600081359050610a7b81611008565b92915050565b600082601f830112610a9257600080fd5b8135610aa5610aa082610eac565b610e7f565b91508082526020830160208301858383011115610ac157600080fd5b610acc838284610fb5565b50505092915050565b600060208284031215610ae757600080fd5b6000610af584828501610a6c565b91505092915050565b600080600060608486031215610b1357600080fd5b600084013567ffffffffffffffff811115610b2d57600080fd5b610b3986828701610a81565b935050602084013567ffffffffffffffff811115610b5657600080fd5b610b6286828701610a81565b925050604084013567ffffffffffffffff811115610b7f57600080fd5b610b8b86828701610a81565b9150509250925092565b6000610ba18383610bc1565b60208301905092915050565b6000610bb98383610cc1565b905092915050565b610bca81610f77565b82525050565b6000610bdb82610ef8565b610be58185610f33565b9350610bf083610ed8565b8060005b83811015610c21578151610c088882610b95565b9750610c1383610f19565b925050600181019050610bf4565b5085935050505092915050565b6000610c3982610f03565b610c438185610f44565b935083602082028501610c5585610ee8565b8060005b85811015610c915784840389528151610c728582610bad565b9450610c7d83610f26565b925060208a01995050600181019050610c59565b50829750879550505050505092915050565b610cac81610f89565b82525050565b610cbb81610f89565b82525050565b6000610ccc82610f0e565b610cd68185610f55565b9350610ce6818560208601610fc4565b610cef81610ff7565b840191505092915050565b6000610d0582610f0e565b610d0f8185610f66565b9350610d1f818560208601610fc4565b610d2881610ff7565b840191505092915050565b60006080830160008301518482036000860152610d508282610cc1565b91505060208301518482036020860152610d6a8282610cc1565b91505060408301518482036040860152610d848282610cc1565b9150506060830151610d996060860182610ca3565b508091505092915050565b60006020820190508181036000830152610dbe8184610bd0565b905092915050565b60006020820190508181036000830152610de08184610c2e565b905092915050565b6000602082019050610dfd6000830184610cb2565b92915050565b60006080820190508181036000830152610e1d8187610cfa565b90508181036020830152610e318186610cfa565b90508181036040830152610e458185610cfa565b9050610e546060830184610cb2565b95945050505050565b60006020820190508181036000830152610e778184610d33565b905092915050565b6000604051905081810181811067ffffffffffffffff82111715610ea257600080fd5b8060405250919050565b600067ffffffffffffffff821115610ec357600080fd5b601f19601f8301169050602081019050919050565b6000819050602082019050919050565b6000819050602082019050919050565b600081519050919050565b600081519050919050565b600081519050919050565b6000602082019050919050565b6000602082019050919050565b600082825260208201905092915050565b600082825260208201905092915050565b600082825260208201905092915050565b600082825260208201905092915050565b6000610f8282610f95565b9050919050565b60008115159050919050565b600073ffffffffffffffffffffffffffffffffffffffff82169050919050565b82818337600083830152505050565b60005b83811015610fe2578082015181840152602081019050610fc7565b83811115610ff1576000848401525b50505050565b6000601f19601f8301169050919050565b61101181610f77565b811461101c57600080fd5b5056fea365627a7a723158203a0c02197dcdb45a616c2caec7b3f75b4108ce3624d107f77fcfa8b7e0cc96306c6578706572696d656e74616cf564736f6c63430005100040",
  "source": "pragma solidity >=0.4.21 <0.7.0;\npragma experimental ABIEncoderV2;\n\ncontract Transporter {\n    struct transporterDetails{\n        string Name;\n        string Id;\n        string Email;\n        bool isValue;\n    }\n\n    mapping (address => transporterDetails) public GroupOfTransporters;\n    address[] TranAdd;\n    string[] TranNames;\n\n    function setTranDetails(string memory _Name, string memory _Id, string memory _Email) public {\n        GroupOfTransporters[msg.sender] = transporterDetails({\n            Name: _Name,\n            Id: _Id,\n            Email: _Email,\n            isValue: true\n        });\n\n        TranAdd.push(msg.sender);\n        TranNames.push(_Name);\n    }\n\n    function getTranDetails(address user) public view returns(transporterDetails memory){\n        return GroupOfTransporters[user];\n    }\n\n    function Exists(address user) public view returns(bool exists) {\n        if(GroupOfTransporters[user].isValue == true) return true;\n        return false;\n    }\n\n    function getTranAdd() public view returns (address[] memory){\n        return TranAdd;\n    }\n\n    function getTranNames() public view returns (string[] memory){\n        return TranNames;\n    }\n\n}",
  "sourcePath": "/home/akanksha/SupplyChain_Hashcode21/SupplyChain_TeamEthConnect/contracts/Transporter.sol",
  "compiler": {
    "name": "solc",
    "version": "0.5.16+commit.9c3226ce.Emscripten.clang"
  },
  "schemaVersion": "3.4.3",
  "updatedAt": "2022-02-12T18:13:58.723Z",
  "networkType": "ethereum",
  "devdoc": {
    "methods": {}
  },
  "userdoc": {
    "methods": {}
  }
}