{
  "contractName": "Transporter",
  "abi": [
    {
      "constant": true,
      "inputs": [
        {
          "internalType": "address",
          "name": "",
          "type": "address"
        }
      ],
      "name": "GroupOfTransporters",
      "outputs": [
        {
          "internalType": "string",
          "name": "Name",
          "type": "string"
        },
        {
          "internalType": "string",
          "name": "Id",
          "type": "string"
        },
        {
          "internalType": "string",
          "name": "Email",
          "type": "string"
        },
        {
          "internalType": "bool",
          "name": "isValue",
          "type": "bool"
        }
      ],
      "payable": false,
      "stateMutability": "view",
      "type": "function"
    },
    {
      "constant": false,
      "inputs": [
        {
          "internalType": "string",
          "name": "_Name",
          "type": "string"
        },
        {
          "internalType": "string",
          "name": "_Id",
          "type": "string"
        },
        {
          "internalType": "string",
          "name": "_Email",
          "type": "string"
        }
      ],
      "name": "setTranDetails",
      "outputs": [],
      "payable": false,
      "stateMutability": "nonpayable",
      "type": "function"
    },
    {
      "constant": true,
      "inputs": [
        {
          "internalType": "address",
          "name": "user",
          "type": "address"
        }
      ],
      "name": "getTranDetails",
      "outputs": [
        {
          "components": [
            {
              "internalType": "string",
              "name": "Name",
              "type": "string"
            },
            {
              "internalType": "string",
              "name": "Id",
              "type": "string"
            },
            {
              "internalType": "string",
              "name": "Email",
              "type": "string"
            },
            {
              "internalType": "bool",
              "name": "isValue",
              "type": "bool"
            }
          ],
          "internalType": "struct Transporter.transporterDetails",
          "name": "",
          "type": "tuple"
        }
      ],
      "payable": false,
      "stateMutability": "view",
      "type": "function"
    },
    {
      "constant": true,
      "inputs": [
        {
          "internalType": "address",
          "name": "user",
          "type": "address"
        }
      ],
      "name": "Exists",
      "outputs": [
        {
          "internalType": "bool",
          "name": "exists",
          "type": "bool"
        }
      ],
      "payable": false,
      "stateMutability": "view",
      "type": "function"
    },
    {
      "constant": true,
      "inputs": [],
      "name": "getTranAdd",
      "outputs": [
        {
          "internalType": "address[]",
          "name": "",
          "type": "address[]"
        }
      ],
      "payable": false,
      "stateMutability": "view",
      "type": "function"
    },
    {
      "constant": true,
      "inputs": [],
      "name": "getTranNames",
      "outputs": [
        {
          "internalType": "string[]",
          "name": "",
          "type": "string[]"
        }
      ],
      "payable": false,
      "stateMutability": "view",
      "type": "function"
    },
    {
      "constant": false,
      "inputs": [
        {
          "internalType": "string",
          "name": "_quantity",
          "type": "string"
        },
        {
          "internalType": "string",
          "name": "_ManuID",
          "type": "string"
        }
      ],
      "name": "getPackage",
      "outputs": [],
      "payable": false,
      "stateMutability": "nonpayable",
      "type": "function"
    },
    {
      "constant": true,
      "inputs": [],
      "name": "getQuantity",
      "outputs": [
        {
          "internalType": "string",
          "name": "",
          "type": "string"
        }
      ],
      "payable": false,
      "stateMutability": "view",
      "type": "function"
    }
  ],
  "bytecode": "0x608060405234801561001057600080fd5b50611254806100206000396000f3fe608060405234801561001057600080fd5b50600436106100885760003560e01c8063a692136b1161005b578063a692136b1461012c578063b2210ad01461014a578063cda981d514610166578063dd09185f1461019657610088565b80630115949c1461008d57806303633118146100ab578063a187b9ce146100de578063a2c0d741146100fc575b600080fd5b6100956101b2565b6040516100a29190610fc8565b60405180910390f35b6100c560048036036100c09190810190610bf5565b610254565b6040516100d59493929190610fea565b60405180910390f35b6100e6610459565b6040516100f39190610f69565b60405180910390f35b61011660048036036101119190810190610bf5565b6104e7565b6040516101239190611044565b60405180910390f35b610134610741565b6040516101419190610f8b565b60405180910390f35b610164600480360361015f9190810190610c1e565b61082a565b005b610180600480360361017b9190810190610bf5565b610845565b60405161018d9190610fad565b60405180910390f35b6101b060048036036101ab9190810190610c8a565b6108b6565b005b606060008054600181600116156101000203166002900480601f01602080910402602001604051908101604052809291908181526020018280546001816001161561010002031660029004801561024a5780601f1061021f5761010080835404028352916020019161024a565b820191906000526020600020905b81548152906001019060200180831161022d57829003601f168201915b5050505050905090565b6001602052806000526040600020600091509050806000018054600181600116156101000203166002900480601f0160208091040260200160405190810160405280929190818152602001828054600181600116156101000203166002900480156103005780601f106102d557610100808354040283529160200191610300565b820191906000526020600020905b8154815290600101906020018083116102e357829003601f168201915b505050505090806001018054600181600116156101000203166002900480601f01602080910402602001604051908101604052809291908181526020018280546001816001161561010002031660029004801561039e5780601f106103735761010080835404028352916020019161039e565b820191906000526020600020905b81548152906001019060200180831161038157829003601f168201915b505050505090806002018054600181600116156101000203166002900480601f01602080910402602001604051908101604052809291908181526020018280546001816001161561010002031660029004801561043c5780601f106104115761010080835404028352916020019161043c565b820191906000526020600020905b81548152906001019060200180831161041f57829003601f168201915b5050505050908060030160009054906101000a900460ff16905084565b606060028054806020026020016040519081016040528092919081815260200182805480156104dd57602002820191906000526020600020905b8160009054906101000a900473ffffffffffffffffffffffffffffffffffffffff1673ffffffffffffffffffffffffffffffffffffffff1681526020019060010190808311610493575b5050505050905090565b6104ef610a3d565b600160008373ffffffffffffffffffffffffffffffffffffffff1673ffffffffffffffffffffffffffffffffffffffff168152602001908152602001600020604051806080016040529081600082018054600181600116156101000203166002900480601f0160208091040260200160405190810160405280929190818152602001828054600181600116156101000203166002900480156105d25780601f106105a7576101008083540402835291602001916105d2565b820191906000526020600020905b8154815290600101906020018083116105b557829003601f168201915b50505050508152602001600182018054600181600116156101000203166002900480601f0160208091040260200160405190810160405280929190818152602001828054600181600116156101000203166002900480156106745780601f1061064957610100808354040283529160200191610674565b820191906000526020600020905b81548152906001019060200180831161065757829003601f168201915b50505050508152602001600282018054600181600116156101000203166002900480601f0160208091040260200160405190810160405280929190818152602001828054600181600116156101000203166002900480156107165780601f106106eb57610100808354040283529160200191610716565b820191906000526020600020905b8154815290600101906020018083116106f957829003601f168201915b505050505081526020016003820160009054906101000a900460ff1615151515815250509050919050565b60606003805480602002602001604051908101604052809291908181526020016000905b82821015610821578382906000526020600020018054600181600116156101000203166002900480601f01602080910402602001604051908101604052809291908181526020018280546001816001161561010002031660029004801561080d5780601f106107e25761010080835404028352916020019161080d565b820191906000526020600020905b8154815290600101906020018083116107f057829003601f168201915b505050505081526020019060010190610765565b50505050905090565b8160009080519060200190610840929190610a67565b505050565b600060011515600160008473ffffffffffffffffffffffffffffffffffffffff1673ffffffffffffffffffffffffffffffffffffffff16815260200190815260200160002060030160009054906101000a900460ff16151514156108ac57600190506108b1565b600090505b919050565b604051806080016040528084815260200183815260200182815260200160011515815250600160003373ffffffffffffffffffffffffffffffffffffffff1673ffffffffffffffffffffffffffffffffffffffff1681526020019081526020016000206000820151816000019080519060200190610935929190610ae7565b506020820151816001019080519060200190610952929190610ae7565b50604082015181600201908051906020019061096f929190610ae7565b5060608201518160030160006101000a81548160ff02191690831515021790555090505060023390806001815401808255809150509060018203906000526020600020016000909192909190916101000a81548173ffffffffffffffffffffffffffffffffffffffff021916908373ffffffffffffffffffffffffffffffffffffffff160217905550506003839080600181540180825580915050906001820390600052602060002001600090919290919091509080519060200190610a36929190610a67565b5050505050565b60405180608001604052806060815260200160608152602001606081526020016000151581525090565b828054600181600116156101000203166002900490600052602060002090601f016020900481019282601f10610aa857805160ff1916838001178555610ad6565b82800160010185558215610ad6579182015b82811115610ad5578251825591602001919060010190610aba565b5b509050610ae39190610b67565b5090565b828054600181600116156101000203166002900490600052602060002090601f016020900481019282601f10610b2857805160ff1916838001178555610b56565b82800160010185558215610b56579182015b82811115610b55578251825591602001919060010190610b3a565b5b509050610b639190610b67565b5090565b610b8991905b80821115610b85576000816000905550600101610b6d565b5090565b90565b600081359050610b9b816111fa565b92915050565b600082601f830112610bb257600080fd5b8135610bc5610bc082611093565b611066565b91508082526020830160208301858383011115610be157600080fd5b610bec8382846111a7565b50505092915050565b600060208284031215610c0757600080fd5b6000610c1584828501610b8c565b91505092915050565b60008060408385031215610c3157600080fd5b600083013567ffffffffffffffff811115610c4b57600080fd5b610c5785828601610ba1565b925050602083013567ffffffffffffffff811115610c7457600080fd5b610c8085828601610ba1565b9150509250929050565b600080600060608486031215610c9f57600080fd5b600084013567ffffffffffffffff811115610cb957600080fd5b610cc586828701610ba1565b935050602084013567ffffffffffffffff811115610ce257600080fd5b610cee86828701610ba1565b925050604084013567ffffffffffffffff811115610d0b57600080fd5b610d1786828701610ba1565b9150509250925092565b6000610d2d8383610d4d565b60208301905092915050565b6000610d458383610e86565b905092915050565b610d5681611169565b82525050565b6000610d67826110df565b610d718185611125565b9350610d7c836110bf565b8060005b83811015610dad578151610d948882610d21565b9750610d9f8361110b565b925050600181019050610d80565b5085935050505092915050565b6000610dc5826110ea565b610dcf8185611136565b935083602082028501610de1856110cf565b8060005b85811015610e1d5784840389528151610dfe8582610d39565b9450610e0983611118565b925060208a01995050600181019050610de5565b50829750879550505050505092915050565b610e388161117b565b82525050565b610e478161117b565b82525050565b6000610e5882611100565b610e628185611158565b9350610e728185602086016111b6565b610e7b816111e9565b840191505092915050565b6000610e91826110f5565b610e9b8185611147565b9350610eab8185602086016111b6565b610eb4816111e9565b840191505092915050565b6000610eca826110f5565b610ed48185611158565b9350610ee48185602086016111b6565b610eed816111e9565b840191505092915050565b60006080830160008301518482036000860152610f158282610e86565b91505060208301518482036020860152610f2f8282610e86565b91505060408301518482036040860152610f498282610e86565b9150506060830151610f5e6060860182610e2f565b508091505092915050565b60006020820190508181036000830152610f838184610d5c565b905092915050565b60006020820190508181036000830152610fa58184610dba565b905092915050565b6000602082019050610fc26000830184610e3e565b92915050565b60006020820190508181036000830152610fe28184610e4d565b905092915050565b600060808201905081810360008301526110048187610ebf565b905081810360208301526110188186610ebf565b9050818103604083015261102c8185610ebf565b905061103b6060830184610e3e565b95945050505050565b6000602082019050818103600083015261105e8184610ef8565b905092915050565b6000604051905081810181811067ffffffffffffffff8211171561108957600080fd5b8060405250919050565b600067ffffffffffffffff8211156110aa57600080fd5b601f19601f8301169050602081019050919050565b6000819050602082019050919050565b6000819050602082019050919050565b600081519050919050565b600081519050919050565b600081519050919050565b600081519050919050565b6000602082019050919050565b6000602082019050919050565b600082825260208201905092915050565b600082825260208201905092915050565b600082825260208201905092915050565b600082825260208201905092915050565b600061117482611187565b9050919050565b60008115159050919050565b600073ffffffffffffffffffffffffffffffffffffffff82169050919050565b82818337600083830152505050565b60005b838110156111d45780820151818401526020810190506111b9565b838111156111e3576000848401525b50505050565b6000601f19601f8301169050919050565b61120381611169565b811461120e57600080fd5b5056fea365627a7a723158207e47c1e4eb9b67d99597616fca0991e24a47cb2b32238c60c9352431e64972ec6c6578706572696d656e74616cf564736f6c63430005100040",
  "source": "pragma solidity >=0.4.21 <0.7.0;\npragma experimental ABIEncoderV2;\n\ncontract Transporter {\n    struct transporterDetails{\n        string Name;\n        string Id;\n        string Email;\n        bool isValue;\n    }\n\n    string quantity;\n    \n    mapping (address => transporterDetails) public GroupOfTransporters;\n    address[] TranAdd;\n    string[] TranNames;\n\n    \n\n    function setTranDetails(string memory _Name, string memory _Id, string memory _Email) public {\n        GroupOfTransporters[msg.sender] = transporterDetails({\n            Name: _Name,\n            Id: _Id,\n            Email: _Email,\n            isValue: true\n        });\n\n        TranAdd.push(msg.sender);\n        TranNames.push(_Name);\n    }\n\n    function getTranDetails(address user) public view returns(transporterDetails memory){\n        return GroupOfTransporters[user];\n    }\n\n    function Exists(address user) public view returns(bool exists) {\n        if(GroupOfTransporters[user].isValue == true) return true;\n        return false;\n    }\n\n    function getTranAdd() public view returns (address[] memory){\n        return TranAdd;\n    }\n\n    function getTranNames() public view returns (string[] memory){\n        return TranNames;\n    }\n\n    function getPackage(string memory _quantity, string memory _ManuID) public {\n        quantity = _quantity;\n    }\n\n    function getQuantity() public view returns (string memory){\n        return quantity;\n    }\n}",
  "sourcePath": "/home/akanksha/SupplyChain_Hashcode21/SupplyChain_TeamEthConnect/contracts/Transporter.sol",
  "compiler": {
    "name": "solc",
    "version": "0.5.16+commit.9c3226ce.Emscripten.clang"
  },
  "schemaVersion": "3.4.3",
  "updatedAt": "2022-02-13T01:37:16.434Z",
  "networkType": "ethereum",
  "devdoc": {
    "methods": {}
  },
  "userdoc": {
    "methods": {}
  }
}